{
  "_format": "hh-sol-artifact-1",
  "contractName": "EtherbaseUpgradeable",
  "sourceName": "contracts/EtherbaseUpgradeable.sol",
  "abi": [
    {
      "anonymous": false,
      "inputs": [
        {
          "indexed": false,
          "internalType": "address",
          "name": "sender",
          "type": "address"
        },
        {
          "indexed": false,
          "internalType": "uint256",
          "name": "amount",
          "type": "uint256"
        }
      ],
      "name": "EtherReceived",
      "type": "event"
    },
    {
      "anonymous": false,
      "inputs": [
        {
          "indexed": false,
          "internalType": "address",
          "name": "receiver",
          "type": "address"
        },
        {
          "indexed": false,
          "internalType": "uint256",
          "name": "amount",
          "type": "uint256"
        }
      ],
      "name": "EtherSent",
      "type": "event"
    },
    {
      "anonymous": false,
      "inputs": [
        {
          "indexed": false,
          "internalType": "uint8",
          "name": "version",
          "type": "uint8"
        }
      ],
      "name": "Initialized",
      "type": "event"
    },
    {
      "anonymous": false,
      "inputs": [
        {
          "indexed": true,
          "internalType": "bytes32",
          "name": "role",
          "type": "bytes32"
        },
        {
          "indexed": true,
          "internalType": "bytes32",
          "name": "previousAdminRole",
          "type": "bytes32"
        },
        {
          "indexed": true,
          "internalType": "bytes32",
          "name": "newAdminRole",
          "type": "bytes32"
        }
      ],
      "name": "RoleAdminChanged",
      "type": "event"
    },
    {
      "anonymous": false,
      "inputs": [
        {
          "indexed": true,
          "internalType": "bytes32",
          "name": "role",
          "type": "bytes32"
        },
        {
          "indexed": true,
          "internalType": "address",
          "name": "account",
          "type": "address"
        },
        {
          "indexed": true,
          "internalType": "address",
          "name": "sender",
          "type": "address"
        }
      ],
      "name": "RoleGranted",
      "type": "event"
    },
    {
      "anonymous": false,
      "inputs": [
        {
          "indexed": true,
          "internalType": "bytes32",
          "name": "role",
          "type": "bytes32"
        },
        {
          "indexed": true,
          "internalType": "address",
          "name": "account",
          "type": "address"
        },
        {
          "indexed": true,
          "internalType": "address",
          "name": "sender",
          "type": "address"
        }
      ],
      "name": "RoleRevoked",
      "type": "event"
    },
    {
      "inputs": [],
      "name": "DEFAULT_ADMIN_ROLE",
      "outputs": [
        {
          "internalType": "bytes32",
          "name": "",
          "type": "bytes32"
        }
      ],
      "stateMutability": "view",
      "type": "function"
    },
    {
      "inputs": [],
      "name": "ETHER_MANAGER_ROLE",
      "outputs": [
        {
          "internalType": "bytes32",
          "name": "",
          "type": "bytes32"
        }
      ],
      "stateMutability": "view",
      "type": "function"
    },
    {
      "inputs": [
        {
          "internalType": "bytes32",
          "name": "role",
          "type": "bytes32"
        }
      ],
      "name": "getRoleAdmin",
      "outputs": [
        {
          "internalType": "bytes32",
          "name": "",
          "type": "bytes32"
        }
      ],
      "stateMutability": "view",
      "type": "function"
    },
    {
      "inputs": [
        {
          "internalType": "bytes32",
          "name": "role",
          "type": "bytes32"
        },
        {
          "internalType": "uint256",
          "name": "index",
          "type": "uint256"
        }
      ],
      "name": "getRoleMember",
      "outputs": [
        {
          "internalType": "address",
          "name": "",
          "type": "address"
        }
      ],
      "stateMutability": "view",
      "type": "function"
    },
    {
      "inputs": [
        {
          "internalType": "bytes32",
          "name": "role",
          "type": "bytes32"
        }
      ],
      "name": "getRoleMemberCount",
      "outputs": [
        {
          "internalType": "uint256",
          "name": "",
          "type": "uint256"
        }
      ],
      "stateMutability": "view",
      "type": "function"
    },
    {
      "inputs": [
        {
          "internalType": "bytes32",
          "name": "role",
          "type": "bytes32"
        },
        {
          "internalType": "address",
          "name": "account",
          "type": "address"
        }
      ],
      "name": "grantRole",
      "outputs": [],
      "stateMutability": "nonpayable",
      "type": "function"
    },
    {
      "inputs": [
        {
          "internalType": "bytes32",
          "name": "role",
          "type": "bytes32"
        },
        {
          "internalType": "address",
          "name": "account",
          "type": "address"
        }
      ],
      "name": "hasRole",
      "outputs": [
        {
          "internalType": "bool",
          "name": "",
          "type": "bool"
        }
      ],
      "stateMutability": "view",
      "type": "function"
    },
    {
      "inputs": [
        {
          "internalType": "address",
          "name": "schainOwner",
          "type": "address"
        }
      ],
      "name": "initialize",
      "outputs": [],
      "stateMutability": "nonpayable",
      "type": "function"
    },
    {
      "inputs": [
        {
          "internalType": "address payable",
          "name": "receiver",
          "type": "address"
        },
        {
          "internalType": "uint256",
          "name": "amount",
          "type": "uint256"
        }
      ],
      "name": "partiallyRetrieve",
      "outputs": [],
      "stateMutability": "nonpayable",
      "type": "function"
    },
    {
      "inputs": [
        {
          "internalType": "bytes32",
          "name": "role",
          "type": "bytes32"
        },
        {
          "internalType": "address",
          "name": "account",
          "type": "address"
        }
      ],
      "name": "renounceRole",
      "outputs": [],
      "stateMutability": "nonpayable",
      "type": "function"
    },
    {
      "inputs": [
        {
          "internalType": "address payable",
          "name": "receiver",
          "type": "address"
        }
      ],
      "name": "retrieve",
      "outputs": [],
      "stateMutability": "nonpayable",
      "type": "function"
    },
    {
      "inputs": [
        {
          "internalType": "bytes32",
          "name": "role",
          "type": "bytes32"
        },
        {
          "internalType": "address",
          "name": "account",
          "type": "address"
        }
      ],
      "name": "revokeRole",
      "outputs": [],
      "stateMutability": "nonpayable",
      "type": "function"
    },
    {
      "inputs": [
        {
          "internalType": "bytes4",
          "name": "interfaceId",
          "type": "bytes4"
        }
      ],
      "name": "supportsInterface",
      "outputs": [
        {
          "internalType": "bool",
          "name": "",
          "type": "bool"
        }
      ],
      "stateMutability": "view",
      "type": "function"
    },
    {
      "stateMutability": "payable",
      "type": "receive"
    }
  ],
  "bytecode": "0x608060405234801561001057600080fd5b50610fd9806100206000396000f3fe6080604052600436106100c65760003560e01c80639010d07c1161007f578063bc2a1e8d11610059578063bc2a1e8d1461026c578063c4d66de81461028e578063ca15c873146102ae578063d547741f146102ce57600080fd5b80639010d07c146101ff57806391d1485414610237578063a217fddf1461025757600080fd5b806301ffc9a71461010a5780630a79309b1461013f578063204a3e9314610161578063248a9ca3146101815780632f2ff15d146101bf57806336568abe146101df57600080fd5b3661010557604080513381523460208201527f1e57e3bb474320be3d2c77138f75b7c3941292d647f5f9634e33a8e94e0e069b910160405180910390a1005b600080fd5b34801561011657600080fd5b5061012a610125366004610cfb565b6102ee565b60405190151581526020015b60405180910390f35b34801561014b57600080fd5b5061015f61015a366004610d3a565b610319565b005b34801561016d57600080fd5b5061015f61017c366004610d57565b61038f565b34801561018d57600080fd5b506101b161019c366004610d83565b60009081526065602052604090206001015490565b604051908152602001610136565b3480156101cb57600080fd5b5061015f6101da366004610d9c565b61050b565b3480156101eb57600080fd5b5061015f6101fa366004610d9c565b610530565b34801561020b57600080fd5b5061021f61021a366004610dcc565b6105ae565b6040516001600160a01b039091168152602001610136565b34801561024357600080fd5b5061012a610252366004610d9c565b6105cd565b34801561026357600080fd5b506101b1600081565b34801561027857600080fd5b506101b1600080516020610f8483398151915281565b34801561029a57600080fd5b5061015f6102a9366004610d3a565b6105f8565b3480156102ba57600080fd5b506101b16102c9366004610d83565b61072c565b3480156102da57600080fd5b5061015f6102e9366004610d9c565b610743565b60006001600160e01b03198216635a05180f60e01b1480610313575061031382610768565b92915050565b610331600080516020610f84833981519152336105cd565b6103825760405162461bcd60e51b815260206004820152601e60248201527f45544845525f4d414e414745525f524f4c45206973207265717569726564000060448201526064015b60405180910390fd5b61038c814761038f565b50565b6103a7600080516020610f84833981519152336105cd565b6103f35760405162461bcd60e51b815260206004820152601e60248201527f45544845525f4d414e414745525f524f4c4520697320726571756972656400006044820152606401610379565b6001600160a01b0382166104495760405162461bcd60e51b815260206004820152601b60248201527f52656365697665722061646472657373206973206e6f742073657400000000006044820152606401610379565b4781111561048e5760405162461bcd60e51b8152602060048201526012602482015271496e73756666696369656e742066756e647360701b6044820152606401610379565b604080516001600160a01b0384168152602081018390527f6109e2559dfa766aaec7118351d48a523f0a4157f49c8d68749c8ac41318ad12910160405180910390a16040516001600160a01b0383169082156108fc029083906000818181858888f19350505050158015610506573d6000803e3d6000fd5b505050565b6000828152606560205260409020600101546105268161079d565b61050683836107a7565b6001600160a01b03811633146105a05760405162461bcd60e51b815260206004820152602f60248201527f416363657373436f6e74726f6c3a2063616e206f6e6c792072656e6f756e636560448201526e103937b632b9903337b91039b2b63360891b6064820152608401610379565b6105aa82826107c9565b5050565b60008281526097602052604081206105c690836107eb565b9392505050565b60009182526065602090815260408084206001600160a01b0393909316845291905290205460ff1690565b600054610100900460ff16158080156106185750600054600160ff909116105b806106325750303b158015610632575060005460ff166001145b6106955760405162461bcd60e51b815260206004820152602e60248201527f496e697469616c697a61626c653a20636f6e747261637420697320616c72656160448201526d191e481a5b9a5d1a585b1a5e995960921b6064820152608401610379565b6000805460ff1916600117905580156106b8576000805461ff0019166101001790555b6106c06107f7565b6106cb600083610864565b6106e3600080516020610f8483398151915283610864565b80156105aa576000805461ff0019169055604051600181527f7f26b83ff96e1f2b6a682f133852f6798a09c465da95921460cefb38474024989060200160405180910390a15050565b60008181526097602052604081206103139061086e565b60008281526065602052604090206001015461075e8161079d565b61050683836107c9565b60006001600160e01b03198216637965db0b60e01b148061031357506301ffc9a760e01b6001600160e01b0319831614610313565b61038c8133610878565b6107b182826108dc565b60008281526097602052604090206105069082610962565b6107d38282610977565b600082815260976020526040902061050690826109de565b60006105c683836109f3565b600054610100900460ff166108625760405162461bcd60e51b815260206004820152602b60248201527f496e697469616c697a61626c653a20636f6e7472616374206973206e6f74206960448201526a6e697469616c697a696e6760a81b6064820152608401610379565b565b6105aa82826107a7565b6000610313825490565b61088282826105cd565b6105aa5761089a816001600160a01b03166014610a1d565b6108a5836020610a1d565b6040516020016108b6929190610e1e565b60408051601f198184030181529082905262461bcd60e51b825261037991600401610e93565b6108e682826105cd565b6105aa5760008281526065602090815260408083206001600160a01b03851684529091529020805460ff1916600117905561091e3390565b6001600160a01b0316816001600160a01b0316837f2f8788117e7eff1d82e926ec794901d17c78024a50270940304540a733656f0d60405160405180910390a45050565b60006105c6836001600160a01b038416610bb9565b61098182826105cd565b156105aa5760008281526065602090815260408083206001600160a01b0385168085529252808320805460ff1916905551339285917ff6391f5c32d9c69d2a47ea670b442974b53935d1edc7fd64eb21e047a839171b9190a45050565b60006105c6836001600160a01b038416610c08565b6000826000018281548110610a0a57610a0a610ec6565b9060005260206000200154905092915050565b60606000610a2c836002610ef2565b610a37906002610f11565b67ffffffffffffffff811115610a4f57610a4f610f29565b6040519080825280601f01601f191660200182016040528015610a79576020820181803683370190505b509050600360fc1b81600081518110610a9457610a94610ec6565b60200101906001600160f81b031916908160001a905350600f60fb1b81600181518110610ac357610ac3610ec6565b60200101906001600160f81b031916908160001a9053506000610ae7846002610ef2565b610af2906001610f11565b90505b6001811115610b6a576f181899199a1a9b1b9c1cb0b131b232b360811b85600f1660108110610b2657610b26610ec6565b1a60f81b828281518110610b3c57610b3c610ec6565b60200101906001600160f81b031916908160001a90535060049490941c93610b6381610f3f565b9050610af5565b5083156105c65760405162461bcd60e51b815260206004820181905260248201527f537472696e67733a20686578206c656e67746820696e73756666696369656e746044820152606401610379565b6000818152600183016020526040812054610c0057508154600181810184556000848152602080822090930184905584548482528286019093526040902091909155610313565b506000610313565b60008181526001830160205260408120548015610cf1576000610c2c600183610f56565b8554909150600090610c4090600190610f56565b9050818114610ca5576000866000018281548110610c6057610c60610ec6565b9060005260206000200154905080876000018481548110610c8357610c83610ec6565b6000918252602080832090910192909255918252600188019052604090208390555b8554869080610cb657610cb6610f6d565b600190038181906000526020600020016000905590558560010160008681526020019081526020016000206000905560019350505050610313565b6000915050610313565b600060208284031215610d0d57600080fd5b81356001600160e01b0319811681146105c657600080fd5b6001600160a01b038116811461038c57600080fd5b600060208284031215610d4c57600080fd5b81356105c681610d25565b60008060408385031215610d6a57600080fd5b8235610d7581610d25565b946020939093013593505050565b600060208284031215610d9557600080fd5b5035919050565b60008060408385031215610daf57600080fd5b823591506020830135610dc181610d25565b809150509250929050565b60008060408385031215610ddf57600080fd5b50508035926020909101359150565b60005b83811015610e09578181015183820152602001610df1565b83811115610e18576000848401525b50505050565b7f416363657373436f6e74726f6c3a206163636f756e7420000000000000000000815260008351610e56816017850160208801610dee565b7001034b99036b4b9b9b4b733903937b6329607d1b6017918401918201528351610e87816028840160208801610dee565b01602801949350505050565b6020815260008251806020840152610eb2816040850160208701610dee565b601f01601f19169190910160400192915050565b634e487b7160e01b600052603260045260246000fd5b634e487b7160e01b600052601160045260246000fd5b6000816000190483118215151615610f0c57610f0c610edc565b500290565b60008219821115610f2457610f24610edc565b500190565b634e487b7160e01b600052604160045260246000fd5b600081610f4e57610f4e610edc565b506000190190565b600082821015610f6857610f68610edc565b500390565b634e487b7160e01b600052603160045260246000fdfee0ba7b49edc651b7ad93b374c67f1e9a0d37370168bbb86b81c569ebfa15f046a26469706673582212202a33daa1c197c5659a8c7c25af25a8f8c023730b3653dad63f6ce479d809efd964736f6c634300080b0033",
  "linkReferences": {},
  "deployedLinkReferences": {}
}