{
  "_format": "hh-sol-artifact-1",
  "contractName": "Marionette",
  "sourceName": "contracts/Marionette.sol",
  "abi": [
    {
      "anonymous": false,
      "inputs": [
        {
          "indexed": false,
          "internalType": "address",
          "name": "sender",
          "type": "address"
        },
        {
          "indexed": false,
          "internalType": "uint256",
          "name": "amount",
          "type": "uint256"
        }
      ],
      "name": "EtherReceived",
      "type": "event"
    },
    {
      "anonymous": false,
      "inputs": [
        {
          "indexed": false,
          "internalType": "address",
          "name": "receiver",
          "type": "address"
        },
        {
          "indexed": false,
          "internalType": "uint256",
          "name": "amount",
          "type": "uint256"
        }
      ],
      "name": "EtherSent",
      "type": "event"
    },
    {
      "anonymous": false,
      "inputs": [
        {
          "indexed": false,
          "internalType": "bytes",
          "name": "output",
          "type": "bytes"
        }
      ],
      "name": "FunctionCallResult",
      "type": "event"
    },
    {
      "anonymous": false,
      "inputs": [
        {
          "indexed": false,
          "internalType": "uint8",
          "name": "version",
          "type": "uint8"
        }
      ],
      "name": "Initialized",
      "type": "event"
    },
    {
      "anonymous": false,
      "inputs": [
        {
          "indexed": true,
          "internalType": "bytes32",
          "name": "role",
          "type": "bytes32"
        },
        {
          "indexed": true,
          "internalType": "bytes32",
          "name": "previousAdminRole",
          "type": "bytes32"
        },
        {
          "indexed": true,
          "internalType": "bytes32",
          "name": "newAdminRole",
          "type": "bytes32"
        }
      ],
      "name": "RoleAdminChanged",
      "type": "event"
    },
    {
      "anonymous": false,
      "inputs": [
        {
          "indexed": true,
          "internalType": "bytes32",
          "name": "role",
          "type": "bytes32"
        },
        {
          "indexed": true,
          "internalType": "address",
          "name": "account",
          "type": "address"
        },
        {
          "indexed": true,
          "internalType": "address",
          "name": "sender",
          "type": "address"
        }
      ],
      "name": "RoleGranted",
      "type": "event"
    },
    {
      "anonymous": false,
      "inputs": [
        {
          "indexed": true,
          "internalType": "bytes32",
          "name": "role",
          "type": "bytes32"
        },
        {
          "indexed": true,
          "internalType": "address",
          "name": "account",
          "type": "address"
        },
        {
          "indexed": true,
          "internalType": "address",
          "name": "sender",
          "type": "address"
        }
      ],
      "name": "RoleRevoked",
      "type": "event"
    },
    {
      "inputs": [],
      "name": "ACCESS_VIOLATION",
      "outputs": [
        {
          "internalType": "string",
          "name": "",
          "type": "string"
        }
      ],
      "stateMutability": "view",
      "type": "function"
    },
    {
      "inputs": [],
      "name": "DEFAULT_ADMIN_ROLE",
      "outputs": [
        {
          "internalType": "bytes32",
          "name": "",
          "type": "bytes32"
        }
      ],
      "stateMutability": "view",
      "type": "function"
    },
    {
      "inputs": [],
      "name": "IMA_ROLE",
      "outputs": [
        {
          "internalType": "bytes32",
          "name": "",
          "type": "bytes32"
        }
      ],
      "stateMutability": "view",
      "type": "function"
    },
    {
      "inputs": [],
      "name": "PUPPETEER_ROLE",
      "outputs": [
        {
          "internalType": "bytes32",
          "name": "",
          "type": "bytes32"
        }
      ],
      "stateMutability": "view",
      "type": "function"
    },
    {
      "inputs": [
        {
          "internalType": "address",
          "name": "receiver",
          "type": "address"
        },
        {
          "internalType": "uint256",
          "name": "value",
          "type": "uint256"
        },
        {
          "internalType": "bytes",
          "name": "data",
          "type": "bytes"
        }
      ],
      "name": "encodeFunctionCall",
      "outputs": [
        {
          "internalType": "bytes",
          "name": "",
          "type": "bytes"
        }
      ],
      "stateMutability": "pure",
      "type": "function"
    },
    {
      "inputs": [
        {
          "internalType": "address payable",
          "name": "target",
          "type": "address"
        },
        {
          "internalType": "uint256",
          "name": "value",
          "type": "uint256"
        },
        {
          "internalType": "bytes",
          "name": "data",
          "type": "bytes"
        }
      ],
      "name": "execute",
      "outputs": [
        {
          "internalType": "bytes",
          "name": "",
          "type": "bytes"
        }
      ],
      "stateMutability": "payable",
      "type": "function"
    },
    {
      "inputs": [
        {
          "internalType": "bytes32",
          "name": "role",
          "type": "bytes32"
        }
      ],
      "name": "getRoleAdmin",
      "outputs": [
        {
          "internalType": "bytes32",
          "name": "",
          "type": "bytes32"
        }
      ],
      "stateMutability": "view",
      "type": "function"
    },
    {
      "inputs": [
        {
          "internalType": "bytes32",
          "name": "role",
          "type": "bytes32"
        },
        {
          "internalType": "uint256",
          "name": "index",
          "type": "uint256"
        }
      ],
      "name": "getRoleMember",
      "outputs": [
        {
          "internalType": "address",
          "name": "",
          "type": "address"
        }
      ],
      "stateMutability": "view",
      "type": "function"
    },
    {
      "inputs": [
        {
          "internalType": "bytes32",
          "name": "role",
          "type": "bytes32"
        }
      ],
      "name": "getRoleMemberCount",
      "outputs": [
        {
          "internalType": "uint256",
          "name": "",
          "type": "uint256"
        }
      ],
      "stateMutability": "view",
      "type": "function"
    },
    {
      "inputs": [
        {
          "internalType": "bytes32",
          "name": "role",
          "type": "bytes32"
        },
        {
          "internalType": "address",
          "name": "account",
          "type": "address"
        }
      ],
      "name": "grantRole",
      "outputs": [],
      "stateMutability": "nonpayable",
      "type": "function"
    },
    {
      "inputs": [
        {
          "internalType": "bytes32",
          "name": "role",
          "type": "bytes32"
        },
        {
          "internalType": "address",
          "name": "account",
          "type": "address"
        }
      ],
      "name": "hasRole",
      "outputs": [
        {
          "internalType": "bool",
          "name": "",
          "type": "bool"
        }
      ],
      "stateMutability": "view",
      "type": "function"
    },
    {
      "inputs": [
        {
          "internalType": "address",
          "name": "owner",
          "type": "address"
        },
        {
          "internalType": "address",
          "name": "ima",
          "type": "address"
        }
      ],
      "name": "initialize",
      "outputs": [],
      "stateMutability": "nonpayable",
      "type": "function"
    },
    {
      "inputs": [
        {
          "internalType": "bytes32",
          "name": "",
          "type": "bytes32"
        },
        {
          "internalType": "address",
          "name": "sender",
          "type": "address"
        },
        {
          "internalType": "bytes",
          "name": "data",
          "type": "bytes"
        }
      ],
      "name": "postMessage",
      "outputs": [
        {
          "internalType": "address",
          "name": "",
          "type": "address"
        }
      ],
      "stateMutability": "nonpayable",
      "type": "function"
    },
    {
      "inputs": [
        {
          "internalType": "bytes32",
          "name": "role",
          "type": "bytes32"
        },
        {
          "internalType": "address",
          "name": "account",
          "type": "address"
        }
      ],
      "name": "renounceRole",
      "outputs": [],
      "stateMutability": "nonpayable",
      "type": "function"
    },
    {
      "inputs": [
        {
          "internalType": "bytes32",
          "name": "role",
          "type": "bytes32"
        },
        {
          "internalType": "address",
          "name": "account",
          "type": "address"
        }
      ],
      "name": "revokeRole",
      "outputs": [],
      "stateMutability": "nonpayable",
      "type": "function"
    },
    {
      "inputs": [
        {
          "internalType": "address payable",
          "name": "target",
          "type": "address"
        },
        {
          "internalType": "uint256",
          "name": "value",
          "type": "uint256"
        }
      ],
      "name": "sendSFuel",
      "outputs": [],
      "stateMutability": "payable",
      "type": "function"
    },
    {
      "inputs": [
        {
          "internalType": "bytes4",
          "name": "interfaceId",
          "type": "bytes4"
        }
      ],
      "name": "supportsInterface",
      "outputs": [
        {
          "internalType": "bool",
          "name": "",
          "type": "bool"
        }
      ],
      "stateMutability": "view",
      "type": "function"
    },
    {
      "stateMutability": "payable",
      "type": "receive"
    }
  ],
  "bytecode": "0x608060405234801561001057600080fd5b506117ef806100206000396000f3fe6080604052600436106101025760003560e01c80639010d07c11610095578063b3c9af0611610064578063b3c9af0614610333578063b61d27f614610346578063ca15c87314610359578063d547741f14610379578063f81299b91461039957600080fd5b80639010d07c146102a257806391d14854146102c25780639bba6b78146102e2578063a217fddf1461031e57600080fd5b806334216d62116100d157806334216d621461020857806336568abe1461022a578063485cc9551461024a578063884cee5a1461026a57600080fd5b806301ffc9a7146101465780631e6995911461017b578063248a9ca3146101a85780632f2ff15d146101e657600080fd5b3661014157604080513381523460208201527f1e57e3bb474320be3d2c77138f75b7c3941292d647f5f9634e33a8e94e0e069b910160405180910390a1005b600080fd5b34801561015257600080fd5b506101666101613660046112b1565b6103cd565b60405190151581526020015b60405180910390f35b34801561018757600080fd5b5061019b610196366004611339565b6103f8565b60405161017291906113f1565b3480156101b457600080fd5b506101d86101c3366004611404565b60009081526065602052604090206001015490565b604051908152602001610172565b3480156101f257600080fd5b5061020661020136600461141d565b61042a565b005b34801561021457600080fd5b506101d860008051602061179a83398151915281565b34801561023657600080fd5b5061020661024536600461141d565b610454565b34801561025657600080fd5b5061020661026536600461144d565b6104d7565b34801561027657600080fd5b5061028a61028536600461147b565b610645565b6040516001600160a01b039091168152602001610172565b3480156102ae57600080fd5b5061028a6102bd3660046114bf565b61077e565b3480156102ce57600080fd5b506101666102dd36600461141d565b61079d565b3480156102ee57600080fd5b5061019b6040518060400160405280601081526020016f20b1b1b2b9b9903b34b7b630ba34b7b760811b81525081565b34801561032a57600080fd5b506101d8600081565b6102066103413660046114e1565b6107c8565b61019b610354366004611339565b61084d565b34801561036557600080fd5b506101d8610374366004611404565b6108f9565b34801561038557600080fd5b5061020661039436600461141d565b610910565b3480156103a557600080fd5b506101d87f18f7915ceb1a15dd0c3170ef6d30ba89e0bcb07f4fb55858579385663709107e81565b60006001600160e01b03198216635a05180f60e01b14806103f257506103f282610935565b92915050565b606084848484604051602001610411949392919061150d565b6040516020818303038152906040529050949350505050565b6000828152606560205260409020600101546104458161096a565b61044f8383610977565b505050565b6001600160a01b03811633146104c95760405162461bcd60e51b815260206004820152602f60248201527f416363657373436f6e74726f6c3a2063616e206f6e6c792072656e6f756e636560448201526e103937b632b9903337b91039b2b63360891b60648201526084015b60405180910390fd5b6104d38282610999565b5050565b600054610100900460ff16158080156104f75750600054600160ff909116105b806105115750303b158015610511575060005460ff166001145b6105745760405162461bcd60e51b815260206004820152602e60248201527f496e697469616c697a61626c653a20636f6e747261637420697320616c72656160448201526d191e481a5b9a5d1a585b1a5e995960921b60648201526084016104c0565b6000805460ff191660011790558015610597576000805461ff0019166101001790555b61059f6109bb565b6105aa600030610a28565b6105c260008051602061179a83398151915284610a28565b6001600160a01b038216156105fb576105fb7f18f7915ceb1a15dd0c3170ef6d30ba89e0bcb07f4fb55858579385663709107e83610a28565b801561044f576000805461ff0019169055604051600181527f7f26b83ff96e1f2b6a682f133852f6798a09c465da95921460cefb38474024989060200160405180910390a1505050565b60006106717f18f7915ceb1a15dd0c3170ef6d30ba89e0bcb07f4fb55858579385663709107e3361079d565b6106b15760405162461bcd60e51b815260206004820152601160248201527053656e646572206973206e6f7420494d4160781b60448201526064016104c0565b6106c960008051602061179a8339815191528561079d565b6040518060400160405280601081526020016f20b1b1b2b9b9903b34b7b630ba34b7b760811b815250906107105760405162461bcd60e51b81526004016104c091906113f1565b50600061071d8484610a32565b90506000610738826000015183602001518460400151610a75565b90507f96dfc08ca2be84df03b6ba50ac467a2e3cfa446eebcc623851fbee1ba03017848160405161076991906113f1565b60405180910390a15060009695505050505050565b60008281526097602052604081206107969083610b67565b9392505050565b60009182526065602090815260408084206001600160a01b0393909316845291905290205460ff1690565b6107e060008051602061179a8339815191523361079d565b6040518060400160405280601081526020016f20b1b1b2b9b9903b34b7b630ba34b7b760811b815250906108275760405162461bcd60e51b81526004016104c091906113f1565b5061044f828260405180604001604052806002815260200161060f60f31b815250610a75565b606061086760008051602061179a8339815191523361079d565b6040518060400160405280601081526020016f20b1b1b2b9b9903b34b7b630ba34b7b760811b815250906108ae5760405162461bcd60e51b81526004016104c091906113f1565b506108f0858585858080601f016020809104026020016040519081016040528093929190818152602001838380828437600092019190915250610a7592505050565b95945050505050565b60008181526097602052604081206103f290610b73565b60008281526065602052604090206001015461092b8161096a565b61044f8383610999565b60006001600160e01b03198216637965db0b60e01b14806103f257506301ffc9a760e01b6001600160e01b03198316146103f2565b6109748133610b7d565b50565b6109818282610be1565b600082815260976020526040902061044f9082610c67565b6109a38282610c7c565b600082815260976020526040902061044f9082610ce3565b600054610100900460ff16610a265760405162461bcd60e51b815260206004820152602b60248201527f496e697469616c697a61626c653a20636f6e7472616374206973206e6f74206960448201526a6e697469616c697a696e6760a81b60648201526084016104c0565b565b6104d38282610977565b60408051606080820183526000808352602083015291810191909152610a5a8284018461156b565b604084015260208301526001600160a01b0316815292915050565b60603415610ab657604080513381523460208201527f1e57e3bb474320be3d2c77138f75b7c3941292d647f5f9634e33a8e94e0e069b910160405180910390a15b8215610aff57604080516001600160a01b0386168152602081018590527f6109e2559dfa766aaec7118351d48a523f0a4157f49c8d68749c8ac41318ad12910160405180910390a15b6001600160a01b0384163b15610b33576004825110610b3357610b2c6001600160a01b0385168385610cf8565b9050610796565b610b466001600160a01b03851684610d26565b50604080518082019091526002815261060f60f31b60208201529392505050565b60006107968383610e3f565b60006103f2825490565b610b87828261079d565b6104d357610b9f816001600160a01b03166014610e69565b610baa836020610e69565b604051602001610bbb929190611638565b60408051601f198184030181529082905262461bcd60e51b82526104c0916004016113f1565b610beb828261079d565b6104d35760008281526065602090815260408083206001600160a01b03851684529091529020805460ff19166001179055610c233390565b6001600160a01b0316816001600160a01b0316837f2f8788117e7eff1d82e926ec794901d17c78024a50270940304540a733656f0d60405160405180910390a45050565b6000610796836001600160a01b038416611005565b610c86828261079d565b156104d35760008281526065602090815260408083206001600160a01b0385168085529252808320805460ff1916905551339285917ff6391f5c32d9c69d2a47ea670b442974b53935d1edc7fd64eb21e047a839171b9190a45050565b6000610796836001600160a01b038416611054565b6060610d1e84848460405180606001604052806029815260200161177160299139611147565b949350505050565b80471015610d765760405162461bcd60e51b815260206004820152601d60248201527f416464726573733a20696e73756666696369656e742062616c616e636500000060448201526064016104c0565b6000826001600160a01b03168260405160006040518083038185875af1925050503d8060008114610dc3576040519150601f19603f3d011682016040523d82523d6000602084013e610dc8565b606091505b505090508061044f5760405162461bcd60e51b815260206004820152603a60248201527f416464726573733a20756e61626c6520746f2073656e642076616c75652c207260448201527f6563697069656e74206d6179206861766520726576657274656400000000000060648201526084016104c0565b6000826000018281548110610e5657610e566116ad565b9060005260206000200154905092915050565b60606000610e788360026116d9565b610e839060026116f8565b67ffffffffffffffff811115610e9b57610e9b611555565b6040519080825280601f01601f191660200182016040528015610ec5576020820181803683370190505b509050600360fc1b81600081518110610ee057610ee06116ad565b60200101906001600160f81b031916908160001a905350600f60fb1b81600181518110610f0f57610f0f6116ad565b60200101906001600160f81b031916908160001a9053506000610f338460026116d9565b610f3e9060016116f8565b90505b6001811115610fb6576f181899199a1a9b1b9c1cb0b131b232b360811b85600f1660108110610f7257610f726116ad565b1a60f81b828281518110610f8857610f886116ad565b60200101906001600160f81b031916908160001a90535060049490941c93610faf81611710565b9050610f41565b5083156107965760405162461bcd60e51b815260206004820181905260248201527f537472696e67733a20686578206c656e67746820696e73756666696369656e7460448201526064016104c0565b600081815260018301602052604081205461104c575081546001818101845560008481526020808220909301849055845484825282860190935260409020919091556103f2565b5060006103f2565b6000818152600183016020526040812054801561113d576000611078600183611727565b855490915060009061108c90600190611727565b90508181146110f15760008660000182815481106110ac576110ac6116ad565b90600052602060002001549050808760000184815481106110cf576110cf6116ad565b6000918252602080832090910192909255918252600188019052604090208390555b85548690806111025761110261173e565b6001900381819060005260206000200160009055905585600101600086815260200190815260200160002060009055600193505050506103f2565b60009150506103f2565b6060824710156111a85760405162461bcd60e51b815260206004820152602660248201527f416464726573733a20696e73756666696369656e742062616c616e636520666f6044820152651c8818d85b1b60d21b60648201526084016104c0565b6001600160a01b0385163b6111ff5760405162461bcd60e51b815260206004820152601d60248201527f416464726573733a2063616c6c20746f206e6f6e2d636f6e747261637400000060448201526064016104c0565b600080866001600160a01b0316858760405161121b9190611754565b60006040518083038185875af1925050503d8060008114611258576040519150601f19603f3d011682016040523d82523d6000602084013e61125d565b606091505b509150915061126d828286611278565b979650505050505050565b60608315611287575081610796565b8251156112975782518084602001fd5b8160405162461bcd60e51b81526004016104c091906113f1565b6000602082840312156112c357600080fd5b81356001600160e01b03198116811461079657600080fd5b6001600160a01b038116811461097457600080fd5b60008083601f84011261130257600080fd5b50813567ffffffffffffffff81111561131a57600080fd5b60208301915083602082850101111561133257600080fd5b9250929050565b6000806000806060858703121561134f57600080fd5b843561135a816112db565b935060208501359250604085013567ffffffffffffffff81111561137d57600080fd5b611389878288016112f0565b95989497509550505050565b60005b838110156113b0578181015183820152602001611398565b838111156113bf576000848401525b50505050565b600081518084526113dd816020860160208601611395565b601f01601f19169290920160200192915050565b60208152600061079660208301846113c5565b60006020828403121561141657600080fd5b5035919050565b6000806040838503121561143057600080fd5b823591506020830135611442816112db565b809150509250929050565b6000806040838503121561146057600080fd5b823561146b816112db565b91506020830135611442816112db565b6000806000806060858703121561149157600080fd5b8435935060208501356114a3816112db565b9250604085013567ffffffffffffffff81111561137d57600080fd5b600080604083850312156114d257600080fd5b50508035926020909101359150565b600080604083850312156114f457600080fd5b82356114ff816112db565b946020939093013593505050565b6001600160a01b0385168152602081018490526060604082018190528101829052818360808301376000818301608090810191909152601f909201601f191601019392505050565b634e487b7160e01b600052604160045260246000fd5b60008060006060848603121561158057600080fd5b833561158b816112db565b925060208401359150604084013567ffffffffffffffff808211156115af57600080fd5b818601915086601f8301126115c357600080fd5b8135818111156115d5576115d5611555565b604051601f8201601f19908116603f011681019083821181831017156115fd576115fd611555565b8160405282815289602084870101111561161657600080fd5b8260208601602083013760006020848301015280955050505050509250925092565b7f416363657373436f6e74726f6c3a206163636f756e7420000000000000000000815260008351611670816017850160208801611395565b7001034b99036b4b9b9b4b733903937b6329607d1b60179184019182015283516116a1816028840160208801611395565b01602801949350505050565b634e487b7160e01b600052603260045260246000fd5b634e487b7160e01b600052601160045260246000fd5b60008160001904831182151516156116f3576116f36116c3565b500290565b6000821982111561170b5761170b6116c3565b500190565b60008161171f5761171f6116c3565b506000190190565b600082821015611739576117396116c3565b500390565b634e487b7160e01b600052603160045260246000fd5b60008251611766818460208701611395565b919091019291505056fe416464726573733a206c6f772d6c6576656c2063616c6c20776974682076616c7565206661696c6564dbe8b307f60c9ed0e3764e9100b17f1d4c5fd58ba7889d208d166f481302d4cfa264697066735822122002da8f12043fccb142f2b63a194e26d99b0caf2c538e623bc0f56c3c69ebf6a664736f6c634300080b0033",
  "linkReferences": {},
  "deployedLinkReferences": {}
}